S01E00004C4544204D6174726978205363726F6C6C20746578742E7372656328
S11300000C942B010C943D010C943D010C943D0186
S11300100C943D010C943D010C943D010C943D0164
S11300200C943D010C943D010C943D010C943D0154
S11300300C943D010C943D010C943D010C943D0144
S11300400C943D010C943D010C943D010C943D0134
S11300500C943D010C943D010C943D010C943D0124
S11300600C943D010C943D014B68616C696420540F
S11300706172656B00000000000000004F0000008A
S113008007000700147F147F14242A7F2A122313E5
S113009008646236495522500005030000001C2202
S11300A041000041221C0014083E081408083E08C0
S11300B008005030000008080808080060600000CC
S11300C020100804023E5149453E00427F40004250
S11300D0615149462141454B311814127F1027457F
S11300E04545393C4A4949300371090503364949B4
S11300F04936064949291E006C6C0000005636003A
S11301000008142241001414141414004122140889
S11301100201510906324979413E7E1111117E7F57
S11301204949493E3E414141227F4141413E7F4947
S11301304949497F090909013E4149493A7F08086B
S1130140087F41417F41413041413F017F081422F2
S1130150417F404040407F020C027F7F0408107FB3
S11301603E4141413E7F090909063E4151215E7FDE
S113017009091966464949493101017F01013F4096
S113018040403F0F3040300F3F4038403F63140839
S11301901463030478040361514945437F414100DA
S11301A0000204081020000041417F0402010204FF
S11301B04040404040000102040020545454787FE1
S11301C0484444383844444420384444487F3854EC
S11301D0545418087E0901020C5252523E7F0804FE
S11301E0047800447D40002040443D007F102844B2
S11301F00000417F400078040804787C08040478F7
S113020038444444387C141414080814147C007CC6
S1130210080404084854545420043F4440203C40FB
S113022040207C1C2040201C3C4030403C44281092
S113023028440C5050503C4464544C44000836410B
S11302400000007F00000041360800080404080490
S113025000000000000011241FBECFEFD8E0DEBF75
S1130260CDBF21E0A0E0B1E001C01D92A032B207F1
S1130270E1F70E9446020C9455020C940000229A65
S11302802A9A239A259A8CB580618CBD8CB580649A
S11302908CBD08958EBD0DB407FEFDCF0895CF9398
S11302A0C62F0E944A018C2F0E944A01CF910895C3
S11302B0CF932A98C4E08AE00E944A0187E00E9412
S11302C04A01C150C1F72A9A2A98C4E08BE00E94DF
S11302D04A0187E00E944A01C150C1F72A9A2A982C
S11302E0C4E08CE00E944A0181E00E944A01C150AE
S11302F0C1F72A9A2A98C4E08FE00E944A0180E05C
S11303000E944A01C150C1F72A9ACF910895CF9310
S1130310DF93D1E02A98C4E08D2F0E944A0180E047
S11303200E944A01C150C1F72A9ADF5FD93091F780
S1130330DF91CF910895E0E0F1E080E291E0119245
S1130340E817F907E1F70895E0E0F1E02FE131E083
S113035091819193E217F307D9F780931F010895D0
S1130360AF92BF92CF92DF92EF92FF921F93CF93FF
S1130370DF930F2EF0E0AF2EF1E0BF2EF02DD0E092
S11303802AC02A98DD2359F1C0E060E080E00E9491
S11303904F01CF5FCD13F9CFF7016081812F0E9408
S11303A04F01D33040F4C3E060E080E00E944F018D
S11303B0C150DC17C8F32A9A1F5FFFEFEF1AFF0A38
S11303C08FEFC81AD80A1930E1F6DF5FE8E0AE0E05
S11303D0B11CD43051F06501750111E0D2CFF601A2
S11303E06081812F0E944F01DECFDF91CF911F9159
S11303F0FF90EF90DF90CF90BF90AF9008951F9340
S1130400CF93DF9390E0EC01CC0FDD1FCC0FDD1F09
S11304108C0F9D1FEC01CB58DF4F15E0FE0184913A
S11304200E94A4010E94B00187EB98E80197F1F7BC
S113043000C00000115021961111F0CFDF91CF912F
S11304401F9108950F931F93CF93DF936115710547
S1130450C1F08C01EC01060F171FFE01849180523C
S11304600E94FF0180E00E94A4010E94B00187EB7A
S113047098E80197F1F700C000002196C017D10752
S113048061F7DF91CF911F910F9108950E943F0171
S11304900E9458010E9487010E949B016DE070E058
S11104A088E690E00E942202F9CFF894FFCF84
S9030000FC
